:100000000C9462000C948A000C948A000C948A0070
:100010000C948A000C948A000C948A000C948A0038
:100020000C948A000C948A000C948A000C948A0028
:100030000C948A000C948A000C948A000C948A0018
:100040000C94CD020C948A000C948A000C948A00C3
:100050000C948A000C948A000C948A000C948A00F8
:100060000C948A000C948A000000000023002600F3
:10007000290000000000240027002A0000000000E2
:10008000250028002B0004040404040404040202D4
:100090000202020203030303030301020408102007
:1000A0004080010204081020010204081020000012
:1000B0000008000201000003040700000000000027
:1000C0000000F90311241FBECFEFD8E0DEBFCDBF83
:1000D00011E0A0E0B1E0EEE3F8E002C005900D927F
:1000E000A635B107D9F721E0A6E5B1E001C01D9220
:1000F000A737B207E1F710E0C2E6D0E004C02197CD
:10010000FE010E941704C136D107C9F70E941703E8
:100110000C941D040C940000833081F028F481308D
:1001200099F08230A9F008958730A9F08830C9F09D
:100130008430B1F4809180008F7D03C08091800075
:100140008F7780938000089584B58F7784BD08955C
:1001500084B58F7DFBCF8091B0008F778093B00006
:1001600008958091B0008F7DF9CF1F93CF93DF93D7
:10017000282F30E0F901E255FF4F8491F901E6564E
:10018000FF4FD491F901EA57FF4FC491CC23A9F056
:10019000162F81110E948C00EC2FF0E0EE0FFF1F54
:1001A000E458FF4FA591B4918FB7F894EC911111D9
:1001B00008C0D095DE23DC938FBFDF91CF911F91D4
:1001C0000895DE2BF8CFCF93DF9390E0FC01E65645
:1001D000FF4F24918A579F4FFC0184918823D1F0CF
:1001E00090E0880F991FFC01EE58FF4FA591B49144
:1001F000FC01E458FF4FC591D491623071F49FB770
:10020000F8943C91822F809583238C93E8812E2B48
:1002100028839FBFDF91CF9108958FB7F894EC9119
:100220002E2B2C938FBFF6CF3FB7F89480915B01B4
:1002300090915C01A0915D01B0915E0126B5A89BF3
:1002400005C02F3F19F00196A11DB11D3FBFBA2F68
:10025000A92F982F8827BC01CD01620F711D811D28
:10026000911D42E0660F771F881F991F4A95D1F7AD
:100270000895AF92BF92CF92DF92EF92FF920F93C9
:100280001F93CF93DF936C017B018B01040F151F2C
:10029000EB015E01AE18BF08C017D10759F0699194
:1002A000D601ED91FC910190F081E02DC6010995F8
:1002B000892B79F7C501DF91CF911F910F91FF90A5
:1002C000EF90DF90CF90BF90AF900895089590E0A9
:1002D00080E00895FC0101900020E9F73197AF011B
:1002E000481B590BBC018FE591E00C943901CF9369
:1002F000DF93EC0160E08E810E94B50061E08E81A9
:100300000E94B50060E08E810E94B5008BE891E00C
:100310000197F1F7DF91CF910895CF92DF92EF929D
:10032000FF920F931F93CF93DF936C017C0187E0C3
:10033000E80EF11CD0E0C0E0062F10E0B8010C2E52
:1003400002C0759567950A94E2F76170F701819193
:100350007F010E94B5002196C430D10579F7C6010E
:10036000DF91CF911F910F91FF90EF90DF90CF9091
:100370000C947701CF92DF92EF92FF920F931F932D
:10038000CF93DF93EC01F62E642F8C810E94B50091
:100390008D818F3F19F060E00E94B5000F2D10E0B5
:1003A0008F8584FF25C06E0187E0C80ED11CF12C1B
:1003B000E12CB8010E2C02C0759567950A94E2F7FE
:1003C0006170F60181916F010E94B500FFEFEF1A95
:1003D000FF0A88E0E816F10461F7CE01DF91CF91C2
:1003E0001F910F91FF90EF90DF90CF900C947701C9
:1003F000B80184E0759567958A95E1F7CE010E9472
:100400008D016F2DCE01DF91CF911F910F91FF9044
:10041000EF90DF90CF900C948D0140E0682F8FE536
:1004200091E00C94BA01CF93DF93823029F490913C
:100430006E01986090936E01809372011092730127
:1004400080E48093740180E18093750180E580935E
:10045000760161E0809163010E94E3008091640174
:100460008F3F19F061E00E94E30061E08091650137
:100470000E94E300CFE5D1E09E012F5531408091ED
:100480006E0184FD0BC084E090E0219628173907A7
:1004900044F461E08E810E94E300EECF88E090E0BA
:1004A000F4CF8BE39DE00197F1F760E08091630169
:1004B0000E94B50060E0809165010E94B5008091C6
:1004C00064018F3F19F060E00E94B50080916E01D9
:1004D00084FD39C063E08FE591E00E948D01CBE49B
:1004E000D6E4CE010197F1F763E08FE591E00E9439
:1004F0008D012197F1F763E08FE591E00E948D0176
:1005000083E592E00197F1F762E08FE591E00E94C8
:100510008D0180916E0180620E940D0284E08093C3
:100520006F018CE00E940D0281E00E940D028BE3BE
:100530009FE10197F1F782E08093700186E0DF91FF
:10054000CF910C940D0280620E940D028BE496E420
:100550000197F1F780916E0180620E940D0283E5A0
:1005600092E00197F1F780916E0180620E940D0286
:10057000D0CF90917201891710F08FEF890FE82F7B
:10058000F0E0E15AFE4F848980680C940D0241E04E
:100590000E94BA0181E090E008951F920F920FB679
:1005A0000F9211242F933F938F939F93AF93BF93F9
:1005B0008091570190915801A0915901B0915A0131
:1005C0003091560123E0230F2D3758F50196A11DD8
:1005D000B11D209356018093570190935801A09329
:1005E0005901B0935A0180915B0190915C01A091F7
:1005F0005D01B0915E010196A11DB11D80935B016B
:1006000090935C01A0935D01B0935E01BF91AF91A7
:100610009F918F913F912F910F900FBE0F901F9040
:10062000189526E8230F0296A11DB11DD2CF78940C
:1006300084B5826084BD84B5816084BD85B58260E7
:1006400085BD85B5816085BD80916E008160809398
:100650006E00109281008091810082608093810001
:100660008091810081608093810080918000816011
:10067000809380008091B10084608093B10080916C
:10068000B00081608093B00080917A008460809394
:100690007A0080917A00826080937A0080917A005B
:1006A000816080937A0080917A00806880937A00DC
:1006B0001092C10082E00E94130261E084E00E9477
:1006C000E30061E083E00E94E30061E082E00E94D9
:1006D000E30062E087E00E94E3008CE091E00E948A
:1006E0006A010E9414014B015C0130EDC32E37E01A
:1006F000D32EE12CF12C0E941401681979098A0982
:100700009B09683E734081059105A8F321E0C21A58
:10071000D108E108F10888EE880E83E0981EA11C3C
:10072000B11CC114D104E104F10429F781E00E9455
:100730000D028BE39FE10197F1F7C5EBD0E001EAF1
:1007400010E09DE8E92E90E0F92E20E0C22E20E096
:10075000D22EFE018491F801A490F701B490BB2041
:1007600079F181110E948C00EB2DF0E0EE0FFF1F5C
:10077000E859FF4FA591B4918C91A82209F160E04E
:1007800084E00E94B50060E083E00E94B50061E073
:1007900082E00E94B50080E00E94B9028AE191E007
:1007A0000E946A0181E00E94B90289E291E00E9400
:1007B0006A01C114D10409F4CCCF0E940000C9CF52
:1007C00061E084E00E94B50060E083E00E94B50033
:1007D00060E082E00E94B50080E00E94B90288E3F8
:1007E00091E00E946A0181E00E94B90287E491E0F1
:1007F000DECFEFE5F1E01382128284E091E0918395
:10080000808389E084838FEF858388E086838DE011
:1008100087838CE080878BE081878AE082871386DC
:10082000148615861686178681E00C941302EE0F47
:0E083000FF1F0590F491E02D0994F894FFCF7E
:10083E0000000000C702390167016601536D617245
:10084E00742054726166666963004E6F2056656847
:10085E0069636C652020202000524544205349478F
:10086E004E414C202020200056656869636C65203F
:10087E00466F756E642000475245454E20534947DA
:06088E004E414C20200049
:00000001FF
