:100000000C945D000C9485000C9485000C94850084
:100010000C9485000C9485000C9485000C9485004C
:100020000C9485000C9485000C9485000C9485003C
:100030000C9485000C9485000C9485000C9485002C
:100040000C94CE020C9485000C9485000C948500D1
:100050000C9485000C9485000C9485000C9485000C
:100060000C9485000C94850000000008000201003B
:100070000003040700000000000000000000000072
:10008000250028002B0000000000240027002A0083
:10009000040404040404040402020202020203032E
:1000A0000303030301020408102040800102040836
:1000B0001020010204081020CE0311241FBECFEF30
:1000C000D8E0DEBFCDBF11E0A0E0B1E0E8EEF7E0A0
:1000D00002C005900D92A834B107D9F721E0A8E439
:1000E000B1E001C01D92A936B207E1F710E0CDE5FD
:1000F000D0E004C02197FE010E94EC03CC35D1076B
:10010000C9F70E9418030C94F2030C94000090E0CD
:10011000FC01EC55FF4F249180579F4FFC018491C7
:10012000882399F090E0880F991FFC01EA57FF4F50
:10013000A591B491FC01E458FF4F859194918FB73C
:10014000F894EC91E22BEC938FBF089590E0FC01C2
:10015000E859FF4F2491FC01EC55FF4F3491FC010D
:10016000E057FF4FE491EE23C9F0222339F023300A
:1001700001F1A8F4213019F1223029F1F0E0EE0F5D
:10018000FF1FE458FF4FA591B4918FB7F894EC91FD
:10019000611126C030953E233C938FBF08952730D0
:1001A000A9F02830C9F0243049F7809180008F7D74
:1001B00003C0809180008F7780938000DFCF84B56B
:1001C0008F7784BDDBCF84B58F7DFBCF8091B0006E
:1001D0008F778093B000D2CF8091B0008F7DF9CF20
:1001E0003E2BDACF3FB7F89480914D0190914E01AC
:1001F000A0914F01B091500126B5A89B05C02F3F9B
:1002000019F00196A11DB11D3FBFBA2FA92F982F3C
:100210008827BC01CD01620F711D811D911D42E037
:10022000660F771F881F991F4A95D1F708958F92FF
:100230009F92AF92BF92CF92DF92EF92FF924B01CB
:100240005C010E94F2006B017C010E94F2006C19BB
:100250007D098E099F09683E734081059105A8F3C9
:1002600021E0821A9108A108B10888EEC80E83E047
:10027000D81EE11CF11C81149104A104B10429F7DA
:10028000FF90EF90DF90CF90BF90AF909F908F90B6
:100290000895AF92BF92CF92DF92EF92FF920F93A9
:1002A0001F93CF93DF936C017B018B01040F151F0C
:1002B000EB015E01AE18BF08C017D10759F0699174
:1002C000D601ED91FC910190F081E02DC6010995D8
:1002D000892B79F7C501DF91CF911F910F91FF9085
:1002E000EF90DF90CF90BF90AF900895089590E089
:1002F00080E00895FC0101900020E9F73197AF01FB
:10030000481B590BBC0181E591E00C944901CF9346
:10031000DF93EC0160E08E810E94A60061E08E8197
:100320000E94A60060E08E810E94A6008BE891E00A
:100330000197F1F7DF91CF910895CF92DF92EF927D
:10034000FF920F931F93CF93DF936C017C0187E0A3
:10035000E80EF11CD0E0C0E0062F10E0B8010C2E32
:1003600002C0759567950A94E2F76170F701819173
:100370007F010E94A6002196C430D10579F7C601FD
:10038000DF91CF911F910F91FF90EF90DF90CF9071
:100390000C948701CF92DF92EF92FF920F931F93FD
:1003A000CF93DF93EC01F62E642F8C810E94A60080
:1003B0008D818F3F19F060E00E94A6000F2D10E0A4
:1003C0008F8584FF25C06E0187E0C80ED11CF12CFB
:1003D000E12CB8010E2C02C0759567950A94E2F7DE
:1003E0006170F60181916F010E94A600FFEFEF1A84
:1003F000FF0A88E0E816F10461F7CE01DF91CF91A2
:100400001F910F91FF90EF90DF90CF900C94870198
:10041000B80184E0759567958A95E1F7CE010E9451
:100420009D016F2DCE01DF91CF911F910F91FF9014
:10043000EF90DF90CF900C949D0140E0682F81E514
:1004400091E00C94CA0181E00E941D028BE39FE1C0
:100450000197F1F70895CF93DF93823029F49091BB
:10046000600198609093600180936401109265012F
:1004700080E48093660180E18093670180E580934A
:100480006801809155010E948700809156018F3F3D
:1004900011F00E948700809157010E948700C1E5FA
:1004A000D1E09E01215531408091600184FD0AC058
:1004B00084E090E02196281739073CF48E810E9451
:1004C0008700EFCF88E090E0F5CF8BE39DE00197C8
:1004D000F1F760E0809155010E94A60060E08091F4
:1004E00057010E94A600809156018F3F19F060E0ED
:1004F0000E94A6008091600184FD34C063E081E524
:1005000091E00E949D01CBE4D6E4CE010197F1F782
:1005100063E081E591E00E949D012197F1F763E09E
:1005200081E591E00E949D0183E592E00197F1F75A
:1005300062E081E591E00E949D018091600180620E
:100540000E941D0284E0809361018CE00E941D02E4
:100550000E94230282E08093620186E0DF91CF91C6
:100560000C941D0280620E941D028BE496E40197A8
:10057000F1F78091600180620E941D0283E592E0A4
:100580000197F1F78091600180620E941D02D5CF32
:1005900041E00E94CA0181E090E008951F920F920D
:1005A0000FB60F9211242F933F938F939F93AF9386
:1005B000BF938091490190914A01A0914B01B09164
:1005C0004C013091480123E0230F2D3758F5019657
:1005D000A11DB11D209348018093490190934A01C8
:1005E000A0934B01B0934C0180914D0190914E012D
:1005F000A0914F01B09150010196A11DB11D8093B2
:100600004D0190934E01A0934F01B0935001BF91C3
:10061000AF919F918F913F912F910F900FBE0F90AF
:100620001F90189526E8230F0296A11DB11DD2CF69
:10063000789484B5826084BD84B5816084BD85B5BD
:10064000826085BD85B5816085BD80916E008160C9
:1006500080936E001092810080918100826080936F
:100660008100809181008160809381008091800071
:100670008160809380008091B10084608093B1009C
:100680008091B00081608093B00080917A00846096
:1006900080937A0080917A00826080937A008091C2
:1006A0007A00816080937A0080917A0080688093DC
:1006B0007A001092C10082E00E942B0284E00E9426
:1006C000870083E00E94870082E00E9487008CE020
:1006D00091E00E947A0160ED77E080E090E00E9476
:1006E00017010E942302C0E0D0E061E084E00E9494
:1006F000A60060E083E00E94A60060E082E00E9425
:10070000A600E1E0809164018111E0E0E195F0E074
:10071000EF5AFE4F848980680E941D028BE191E0B0
:100720000E947A0168E873E180E090E00E9417017E
:1007300060E084E00E94A60061E083E00E94A600E1
:1007400060E082E00E94A6000E9423028AE291E01B
:100750000E947A0160ED77E080E090E00E9417014E
:1007600060E084E00E94A60060E083E00E94A600B2
:1007700061E082E00E94A6000E94230289E391E0EA
:100780000E947A0168E873E180E090E00E9417011E
:10079000209709F4AACF0E940000A7CFE1E5F1E07D
:1007A0001382128284E091E09183808389E08483C4
:1007B0008FEF858388E086838DE087838CE0808758
:1007C0008BE081878AE082871386148615861686D9
:1007D000178681E00C942B02EE0FFF1F0590F49119
:0807E000E02D0994F894FFCF0D
:1007E80000000000C8024901770176015472616671
:1007F8006669632053797374656D00475245454EA9
:10080800204C494748542020200059454C4C4F570C
:10081800204C49474854202000524544204C494721
:0808280048542020202020008C
:00000001FF
